{
  "_format": "hh-sol-artifact-1",
  "contractName": "MMarket",
  "sourceName": "contracts/MMarket.sol",
  "abi": [
    {
      "inputs": [],
      "stateMutability": "nonpayable",
      "type": "constructor"
    },
    {
      "anonymous": false,
      "inputs": [
        {
          "indexed": true,
          "internalType": "uint256",
          "name": "itemId",
          "type": "uint256"
        },
        {
          "indexed": true,
          "internalType": "address",
          "name": "nftContract",
          "type": "address"
        },
        {
          "indexed": true,
          "internalType": "uint256",
          "name": "tokenId",
          "type": "uint256"
        },
        {
          "indexed": false,
          "internalType": "address",
          "name": "seller",
          "type": "address"
        },
        {
          "indexed": false,
          "internalType": "address",
          "name": "owner",
          "type": "address"
        },
        {
          "indexed": false,
          "internalType": "uint256",
          "name": "price",
          "type": "uint256"
        },
        {
          "indexed": false,
          "internalType": "bool",
          "name": "sold",
          "type": "bool"
        }
      ],
      "name": "MarketTokenMinted",
      "type": "event"
    },
    {
      "inputs": [
        {
          "internalType": "address",
          "name": "nftContract",
          "type": "address"
        },
        {
          "internalType": "uint256",
          "name": "itemId",
          "type": "uint256"
        }
      ],
      "name": "createMarketSale",
      "outputs": [],
      "stateMutability": "payable",
      "type": "function"
    },
    {
      "inputs": [],
      "name": "fetchItemsCreated",
      "outputs": [
        {
          "components": [
            {
              "internalType": "uint256",
              "name": "itemId",
              "type": "uint256"
            },
            {
              "internalType": "address",
              "name": "nftContract",
              "type": "address"
            },
            {
              "internalType": "uint256",
              "name": "tokenId",
              "type": "uint256"
            },
            {
              "internalType": "address payable",
              "name": "seller",
              "type": "address"
            },
            {
              "internalType": "address payable",
              "name": "owner",
              "type": "address"
            },
            {
              "internalType": "uint256",
              "name": "price",
              "type": "uint256"
            },
            {
              "internalType": "bool",
              "name": "sold",
              "type": "bool"
            }
          ],
          "internalType": "struct MMarket.MarketToken[]",
          "name": "",
          "type": "tuple[]"
        }
      ],
      "stateMutability": "view",
      "type": "function"
    },
    {
      "inputs": [],
      "name": "fetchMarketTokens",
      "outputs": [
        {
          "components": [
            {
              "internalType": "uint256",
              "name": "itemId",
              "type": "uint256"
            },
            {
              "internalType": "address",
              "name": "nftContract",
              "type": "address"
            },
            {
              "internalType": "uint256",
              "name": "tokenId",
              "type": "uint256"
            },
            {
              "internalType": "address payable",
              "name": "seller",
              "type": "address"
            },
            {
              "internalType": "address payable",
              "name": "owner",
              "type": "address"
            },
            {
              "internalType": "uint256",
              "name": "price",
              "type": "uint256"
            },
            {
              "internalType": "bool",
              "name": "sold",
              "type": "bool"
            }
          ],
          "internalType": "struct MMarket.MarketToken[]",
          "name": "",
          "type": "tuple[]"
        }
      ],
      "stateMutability": "view",
      "type": "function"
    },
    {
      "inputs": [],
      "name": "fetchMyNFTs",
      "outputs": [
        {
          "components": [
            {
              "internalType": "uint256",
              "name": "itemId",
              "type": "uint256"
            },
            {
              "internalType": "address",
              "name": "nftContract",
              "type": "address"
            },
            {
              "internalType": "uint256",
              "name": "tokenId",
              "type": "uint256"
            },
            {
              "internalType": "address payable",
              "name": "seller",
              "type": "address"
            },
            {
              "internalType": "address payable",
              "name": "owner",
              "type": "address"
            },
            {
              "internalType": "uint256",
              "name": "price",
              "type": "uint256"
            },
            {
              "internalType": "bool",
              "name": "sold",
              "type": "bool"
            }
          ],
          "internalType": "struct MMarket.MarketToken[]",
          "name": "",
          "type": "tuple[]"
        }
      ],
      "stateMutability": "view",
      "type": "function"
    },
    {
      "inputs": [],
      "name": "getListingPrice",
      "outputs": [
        {
          "internalType": "uint256",
          "name": "",
          "type": "uint256"
        }
      ],
      "stateMutability": "view",
      "type": "function"
    },
    {
      "inputs": [
        {
          "internalType": "address",
          "name": "nftContract",
          "type": "address"
        },
        {
          "internalType": "uint256",
          "name": "tokenId",
          "type": "uint256"
        },
        {
          "internalType": "uint256",
          "name": "price",
          "type": "uint256"
        }
      ],
      "name": "makeMarketItem",
      "outputs": [],
      "stateMutability": "payable",
      "type": "function"
    }
  ],
  "bytecode": "0x6080604052669fdf42f6e4800060045534801561001b57600080fd5b506001600055600380546001600160a01b03191633179055610d38806100426000396000f3fe6080604052600436106100555760003560e01c806312e855851461005a578063202e37401461007d5780637a060f561461009f578063c23b139e146100b4578063c69bdf75146100c7578063f064c32e146100dc575b600080fd5b34801561006657600080fd5b506004546040519081526020015b60405180910390f35b34801561008957600080fd5b506100926100f1565b6040516100749190610c0e565b6100b26100ad366004610bdc565b6102f2565b005b6100b26100c2366004610bb3565b610554565b3480156100d357600080fd5b5061009261076a565b3480156100e857600080fd5b50610092610909565b606060006100fe60015490565b905060008060005b8381101561016157336005600061011e846001610ca2565b81526020810191909152604001600020600401546001600160a01b0316141561014f5761014c600184610ca2565b92505b8061015981610cd1565b915050610106565b5060008267ffffffffffffffff81111561018b57634e487b7160e01b600052604160045260246000fd5b6040519080825280602002602001820160405280156101c457816020015b6101b1610b5b565b8152602001906001900390816101a95790505b50905060005b848110156102e95733600560006101e2846001610ca2565b81526020810191909152604001600020600401546001600160a01b031614156102d7576000600581610215846001610ca2565b81526020808201929092526040908101600090812054808252600580855291839020835160e0810185528154815260018201546001600160a01b0390811696820196909652600282015494810194909452600381015485166060850152600481015490941660808401529083015460a0830152600683015460ff16151560c083015285519093508590879081106102bc57634e487b7160e01b600052603260045260246000fd5b60209081029190910101526102d2600186610ca2565b945050505b806102e181610cd1565b9150506101ca565b50949350505050565b6102fa610b01565b600081116103595760405162461bcd60e51b815260206004820152602160248201527f5072696365206d757374206265206174206174206c65617374206f6e652077656044820152606960f81b60648201526084015b60405180910390fd5b60045434146103b65760405162461bcd60e51b8152602060048201526024808201527f5072696365206d75737420626520657175616c20746f206c697374696e6720706044820152637269636560e01b6064820152608401610350565b6103c4600180546001019055565b60006103cf60015490565b6040805160e0810182528281526001600160a01b0387811660208084018281528486018a8152336060870181815260006080890181815260a08a018e815260c08b018381528d8452600598899052928c90209a518b55955160018b018054918b166001600160a01b0319928316179055945160028b0155915160038a018054918a1691861691909117905590516004808a01805492909916919094161790965591519286019290925592516006909401805494151560ff199095169490941790935592516323b872dd60e01b81529182015230602482015260448101869052919250906323b872dd90606401600060405180830381600087803b1580156104d557600080fd5b505af11580156104e9573d6000803e3d6000fd5b505060408051338152600060208201819052818301879052606082015290518693506001600160a01b038816925084917fcd9b0dfebab7db4dbe70606f69fadc8e987e7c80a65410f0bb5ae8bd72dabba7919081900360800190a45061054f6001600055565b505050565b61055c610b01565b600081815260056020818152604092839020835160e0810185528154815260018201546001600160a01b03908116938201939093526002820154948101859052600382015483166060820152600482015490921660808301529182015460a0820181905260069092015460ff16151560c08201529134821461063c5760405162461bcd60e51b815260206004820152603360248201527f506c65617365207375626d6974207468652061736b696e6720707269636520696044820152726e206f7264657220746f20636f6e74696e756560681b6064820152608401610350565b60608301516040516001600160a01b03909116903480156108fc02916000818181858888f19350505050158015610677573d6000803e3d6000fd5b506040516323b872dd60e01b8152306004820152336024820152604481018290526001600160a01b038616906323b872dd90606401600060405180830381600087803b1580156106c657600080fd5b505af11580156106da573d6000803e3d6000fd5b50505060008581526005602052604090206004810180546001600160a01b03191633179055600601805460ff191660011790555061071c600280546001019055565b6003546004546040516001600160a01b039092169181156108fc0291906000818181858888f19350505050158015610758573d6000803e3d6000fd5b505050506107666001600055565b5050565b6060600061077760015490565b9050600061078460025490565b6001546107919190610cba565b90506000808267ffffffffffffffff8111156107bd57634e487b7160e01b600052604160045260246000fd5b6040519080825280602002602001820160405280156107f657816020015b6107e3610b5b565b8152602001906001900390816107db5790505b50905060005b848110156102e9576000600581610814846001610ca2565b81526020810191909152604001600020600401546001600160a01b031614156108f7576000610844826001610ca2565b600081815260056020818152604092839020835160e0810185528154815260018201546001600160a01b0390811693820193909352600282015494810194909452600381015482166060850152600481015490911660808401529081015460a0830152600681015460ff16151560c08301528551929350918590879081106108dc57634e487b7160e01b600052603260045260246000fd5b60209081029190910101526108f2600186610ca2565b945050505b8061090181610cd1565b9150506107fc565b6060600061091660015490565b905060008060005b83811015610979573360056000610936846001610ca2565b81526020810191909152604001600020600301546001600160a01b0316141561096757610964600184610ca2565b92505b8061097181610cd1565b91505061091e565b5060008267ffffffffffffffff8111156109a357634e487b7160e01b600052604160045260246000fd5b6040519080825280602002602001820160405280156109dc57816020015b6109c9610b5b565b8152602001906001900390816109c15790505b50905060005b848110156102e95733600560006109fa846001610ca2565b81526020810191909152604001600020600301546001600160a01b03161415610aef576000600581610a2d846001610ca2565b81526020808201929092526040908101600090812054808252600580855291839020835160e0810185528154815260018201546001600160a01b0390811696820196909652600282015494810194909452600381015485166060850152600481015490941660808401529083015460a0830152600683015460ff16151560c08301528551909350859087908110610ad457634e487b7160e01b600052603260045260246000fd5b6020908102919091010152610aea600186610ca2565b945050505b80610af981610cd1565b9150506109e2565b60026000541415610b545760405162461bcd60e51b815260206004820152601f60248201527f5265656e7472616e637947756172643a207265656e7472616e742063616c6c006044820152606401610350565b6002600055565b6040805160e081018252600080825260208201819052918101829052606081018290526080810182905260a0810182905260c081019190915290565b80356001600160a01b0381168114610bae57600080fd5b919050565b60008060408385031215610bc5578182fd5b610bce83610b97565b946020939093013593505050565b600080600060608486031215610bf0578081fd5b610bf984610b97565b95602085013595506040909401359392505050565b602080825282518282018190526000919060409081850190868401855b82811015610c9557815180518552868101516001600160a01b039081168887015286820151878701526060808301518216908701526080808301519091169086015260a0808201519086015260c09081015115159085015260e09093019290850190600101610c2b565b5091979650505050505050565b60008219821115610cb557610cb5610cec565b500190565b600082821015610ccc57610ccc610cec565b500390565b6000600019821415610ce557610ce5610cec565b5060010190565b634e487b7160e01b600052601160045260246000fdfea2646970667358221220d87a36a6212e989c999891d297f2aa87a7f82188d21c5fc32b9358ef2ba72d5664736f6c63430008040033",
  "linkReferences": {},
  "deployedLinkReferences": {}
}